:030000000208B142
:0C08B100787FE4F6D8FD7581200208F87D
:100A1300041700000000040800000000C1000A0CD5
:0A0A23003F065B4F666D7D077F6F95
:080A7700120A47120A5980FE21
:03000B000209F0F7
:1009F000C0E0C0D0B200300015E51A2401F51AE4B9
:100A00003519F519E43518F518E43517F517D0D070
:030A1000D0E03201
:100A4700758911758C4B758AFE758DDCE4F58BD233
:020A57008E22ED
:0F0A5900D2AFD2A9D2ABD2A8D2AAD288D28A2247
:03000300020A7F6F
:030A7F00B28C3204
:03001300020A2EB0
:100A2E00851A0B85190A851809851708751A007518
:090A3E001900751800751700324B
:03001B0002093D9A
:10093D00C0E0C0F0C083C082C0D075D000C000C080
:10094D0001C002C003C004C005C006C007C28FC2EB
:10095D008E758D00758B00AF1AAE19AD18AC17C220
:10096D0001120800AF0BAE0AAD09AC08D201120896
:10097D0000D28ED007D006D005D004D003D002D03F
:0E098D0001D000D0D0D082D083D0F0D0E032A4
:040800008E1B8F1CA0
:10080400200156E4F51DE51C451B70030208B0AE3B
:100814001BAF1C7C007D0A12099B8D1EAF1D740149
:10082400A807088002C333D8FCF5A0E51DB4010A6B
:10083400740C251EF8E624808006740C251EF8E648
:10084400F4F590120A68AE1BAF1C7C007D0A1209F5
:100854009B8E1B8F1C051D80AD751D03E51C451B60
:10086400604AAE1BAF1C7C007D0A12099B8D1EAF33
:100874001D7401A807088002C333D8FCF5A0E51D48
:10088400B4040A740C251EF8E624808006740C2532
:100894001EF8E6F4F590120A68AE1BAF1C7C007DCE
:0C08A4000A12099B8E1B8F1C051D80B0E2
:0108B0002225
:0E0A6800E4FFFE0FBF00010EBE03F8BFE8F56D
:010A7600225D
:1008BD00020A77E493A3F8E493A34003F68001F2D0
:1008CD0008DFF48029E493A3F85407240CC8C3333C
:1008DD00C4540F4420C8834004F456800146F6DF0B
:1008ED00E4800B0102040810204080900A13E47E7E
:1008FD00019360BCA3FF543F30E509541FFEE49300
:10090D00A360010ECF54C025E060A840B8E493A3C6
:10091D00FAE493A3F8E493A3C8C582C8CAC583CAF1
:10092D00F0A3C8C582C8CAC583CADFE9DEE780BEA9
:010A2D0000C8
:10099B00BC000BBE0029EF8DF084FFADF022E4CC40
:1009AB00F875F008EF2FFFEE33FEEC33FCEE9DEC09
:1009BB00984005FCEE9DFE0FD5F0E9E4CEFD22ED4F
:1009CB00F8F5F0EE8420D21CFEADF075F008EF2F99
:1009DB00FFED33FD4007985006D5F0F222C398FD8A
:0509EB000FD5F0EA2227
:00000001FF
